:020000040800F2
:100000000007002089010008652000088D1E0008F7
:10001000612000088F0200080B2300080000000088
:10002000000000000000000000000000B1220008F5
:10003000930200080000000069200008B3220008B5
:10004000A3010008A3010008A3010008A301000800
:10005000A3010008A3010008A3010008A3010008F0
:10006000A3010008A3010008A3010008A3010008E0
:10007000A3010008A3010008A3010008A3010008D0
:10008000A3010008A3010008A3010008A3010008C0
:10009000A3010008A3010008A3010008A3010008B0
:1000A000A3010008A3010008A3010008A3010008A0
:1000B000A3010008A3010008A3010008A301000890
:1000C000A3010008A3010008A301000815210008EE
:1000D000A3010008A3010008A3010008A301000870
:1000E000A3010008A3010008A301000800F002F822
:1000F00000F03AF80AA090E8000C82448344AAF188
:100100000107DA4501D100F02FF8AFF2090EBAE885
:100110000F0013F0010F18BFFB1A43F0010318473B
:100120005427000074270000103A24BF78C878C113
:10013000FAD8520724BF30C830C144BF04680C60ED
:10014000704700000023002400250026103A28BF35
:1001500078C1FBD8520728BF30C148BF0B60704739
:100160001FB51FBD10B510BD00F058F81146FFF7C0
:10017000F7FF02F04FF900F076F803B4FFF7F2FF53
:1001800003BC00F07DF8000009488047094800479B
:10019000FEE7FEE7FEE7FEE7FEE7FEE7FEE7FEE737
:1001A000FEE7FEE704480549054A064B7047000094
:1001B00009230008ED0000080001002000070020CE
:1001C00000030020000300204FF0000200B513469A
:1001D00094469646203922BFA0E80C50A0E80C5067
:1001E000B1F12001BFF4F7AF090728BFA0E80C5018
:1001F00048BF0CC05DF804EB890028BF40F8042B11
:1002000008BF704748BF20F8022B11F0804F18BF7D
:1002100000F8012B7047704770477047754600F033
:100220002BF8AE4605006946534620F00700854688
:1002300018B020B5FFF7B6FFBDE820404FF000062C
:100240004FF000074FF000084FF0000B21F00701BE
:10025000AC46ACE8C009ACE8C009ACE8C009ACE801
:10026000C0098D46704710B50446AFF300802046A4
:10027000BDE81040FFF781BF004870479C00002098
:1002800001491820ABBEFEE726000200704700BF00
:10029000FEE7704772B600BFFEE7000070B5044687
:1002A000002594F82100022803D00420A063012532
:1002B00048E02068006820F00E002168086020688F
:1002C000006820F00100216808601F49206888420A
:1002D00001D1012026E01C4914312068884201D157
:1002E00010201FE0184928312068884201D180156C
:1002F00018E015493C312068884201D1801411E092
:10030000114950312068884202D14FF4803009E011
:100310000D4964312068884202D14FF4801001E019
:100320004FF08070084908394860012084F82100A6
:1003300000BF002084F8200000BF606B10B1204691
:10034000616B8847284670BD0800024070B50446BE
:1003500000F044FA06462546681C10B104480078AF
:10036000054400BF00F03AFA801BA842FAD370BDE2
:10037000080000202DE9FC5F05460C460027002000
:100380000190DB4885420BD0DA48854208D0DA4834
:10039000854205D0D948854202D0D948854200D14E
:1003A00003E0BD21D7A002F009F8208880B220B177
:1003B00020686FF30F0000B903E0BE21D1A001F067
:1003C000FDFF606830B36068012823D060681128A1
:1003D00020D0606802281DD0606812281AD0D84941
:1003E0006068884216D0D7496068884212D0D649E2
:1003F000606888420ED0D549606888420AD0D449E6
:100400006068884206D0D3496068884202D060683C
:10041000032800D103E0BF21BAA001F0CFFF60E1C3
:10042000012000FA07F8206800EA080646456FD167
:10043000AF4885420BD0AF48854208D0AE488542D0
:1004400005D0AE48854202D0AD48854200D103E0D8
:10045000CD21ACA001F0B2FFB94A6068811A904288
:100460006AD00EDC032875D006DC002863D0012892
:1004700019D002286FD139E0112825D01228F9D1DE
:1004800047E0B1F5881F5BD006DCB1F5803F56D060
:10049000B1F5801F79D150E0B1F5001F4ED0B1F514
:1004A000041F72D14DE0E068022805D0E068012801
:1004B00002D0E068032800D103E0D52191A001F02B
:1004C0007DFFE068019061E0E068022805D0E06807
:1004D000012802D0E068032800D103E0DC2189A0D4
:1004E00001F06CFFE068001D01904FE0E068022819
:1004F00005D0E068012802D0E068032800D103E0BD
:10050000E32180A001F05AFFE068083001903DE04F
:10051000DCE0E068022805D0E068012802D0E0684D
:10052000032800D103E0EA2176A001F047FFE0684C
:100530000C3001902AE000BF00BF00BF00BF00BF29
:1005400000BFA06828B1A068012802D0A0680228D6
:1005500002D105E016E018E0F7216AA001F02EFFB5
:10056000A06810B9042001900BE0A068012804D114
:1005700008200190C5F8108003E008200190C5F81C
:10058000148003E00020019000E000BF00BFFF2EB8
:1005900001D8284600E0281D8246FF2E01D8B80069
:1005A00002E0A7F1080080008346DAF800000F217E
:1005B00001FA0BF18843019901FA0BF10843CAF8DB
:1005C0000000606800F08050B0F1805F7ED100BF15
:1005D0006148806940F001005F4988610846806990
:1005E00000F00100009000BF00BF4FEAB130B90831
:1005F00050F82190B807010F0F20884029EA000920
:100600003B48854201D100200FE03A48854201D1A4
:1006100001200AE03848854201D1022005E0374830
:10062000854201D1032000E00420B907090F88406A
:1006300040EA09094948B90840F82190606800F487
:100640008010B0F5801F05D145480068304344490B
:10065000086004E042480068B043414908606068AF
:1006600000F40010B0F5001F07D13D48001D0068E0
:1006700030433B49091D086006E03948001D006809
:10068000B0433749091D0860606800F40030B0F5D8
:10069000003F07D13248001F006830433049091F2E
:1006A000086006E02E48001F0068B0432C49091F6F
:1006B0000860606800F48030B0F5803F09D12848B8
:1006C0000838006830432649083900E008E008602F
:1006D00006E0234808380068B0432149083908601B
:1006E0007F1C2068F84000287FF49AAEBDE8FC9F8C
:1006F00000080140000C01400010014000140140BE
:10070000001801402E2E2F447269766572732F53A4
:10071000544D3332463178785F48414C5F447269BA
:100720007665722F5372632F73746D33326631782E
:10073000785F68616C5F6770696F2E63000000000E
:1007400000001110000021100000311000001210F4
:10075000000022100000321000100240080001408A
:100760000804014070B506460C461546A0B218B103
:10077000200C000400B904E04FF4EA7108A001F075
:100780001DFE0DB1012D00D104E040F2D51104A0F1
:1007900001F014FE0DB1346101E02004306170BD40
:1007A0002E2E2F447269766572732F53544D333257
:1007B000463178785F48414C5F4472697665722FA4
:1007C0005372632F73746D3332663178785F68616A
:1007D0006C5F6770696F2E6300000000014800685D
:1007E00070470000000000200348006803490978B2
:1007F00008440149086070470000002008000020FC
:1008000010B50848006840F0100006490860032051
:1008100000F0FAF80F2000F007F800F02BF80020A5
:1008200010BD00000020024070B504460E4800785C
:100830004FF47A71B1FBF0F00C490968B1FBF0F5A7
:10084000284601F009FB08B1012070BD102C07D229
:1008500000222146501E00F06DF80548046001E0BA
:100860000120F2E70020F0E7080000200C00002043
:100870000400002008B500BF1148806940F0010065
:100880000F4988610846806900F00100009000BFB0
:1008900000BF00BF0846C06940F08050C8610846EC
:1008A000C06900F08050009000BF00BF00BF054944
:1008B000486820F0E06040F00070486000BF08BD6C
:1008C000001002400000014010B50446002C00DB7F
:1008D00003E0BD2108A001F071FD2046002809DBDE
:1008E00000F01F02012191404209920002F1E02232
:1008F000C2F8001100BF10BD2E2E2F44726976651C
:1009000072732F53544D3332463178785F48414CDF
:100910005F4472697665722F5372632F73746D33FF
:1009200032663178785F68616C5F636F7274657886
:100930002E6300002DE9F05F80460C461546002727
:10094000102D00D203E0A92120A001F037FD102CCA
:1009500000D203E0AA211DA001F030FD01F012FD3C
:100960000746394622462B4601F00700C0F1070A28
:10097000BAF1040F02D94FF0040A01E0C0F1070AEE
:10098000D14600F1040ABAF1070F02D24FF0000A73
:1009900001E0A0F1030AD4464FF0010A0AFA09FA6D
:1009A000AAF1010A0AEA020A0AFA0CFA4FF0010B4C
:1009B0000BFA0CFBABF1010B0BEA030B4AEA0B063B
:1009C0003146404601F0E6FCBDE8F09F2E2E2F4454
:1009D0007269766572732F53544D3332463178788D
:1009E0005F48414C5F4472697665722F5372632F82
:1009F00073746D3332663178785F68616C5F636FF2
:100A0000727465782E63000010B50446072C07D079
:100A1000062C05D0052C03D0042C01D0032C00D1CA
:100A200003E0912109A001F0C9FC00BF04F0070117
:100A3000154A10684FF6FF021040144A024342EA7A
:100A40000120114A106000BF10BD00002E2E2F445F
:100A50007269766572732F53544D3332463178780C
:100A60005F48414C5F4472697665722F5372632F01
:100A700073746D3332663178785F68616C5F636F71
:100A8000727465782E6300000CED00E00000FA053A
:100A900070B504460D460CB9012070BD207800F0F9
:100AA000010070B9207800F00200022809D02078F7
:100AB00000F00400042804D0207800F00800082882
:100AC00000D104E040F2363190A001F077FC1DB176
:100AD000012D01D0022D00D104E040F237318BA06E
:100AE00001F06CFC9748006800F00700A8420ED2A5
:100AF0009448006820F0070028439249086008469F
:100B0000006800F00700A84201D00120C5E7207866
:100B100000F0020002283DD1207800F004000428F3
:100B200005D18948406840F4E060874948602078F2
:100B300000F00800082805D18348406840F4605060
:100B400081494860A068B8B1A068802814D0A06826
:100B5000902811D0A068A0280ED0A068B0280BD093
:100B6000A068C02808D0A068D02805D0A068E028D8
:100B700002D0A068F02800D104E040F25D3163A00B
:100B800001F01CFC7048406820F0F000A1680843A8
:100B90006D494860207800F00100002845D0606869
:100BA00028B16068012802D06068022800D104E002
:100BB0004FF4597155A001F001FC6068012806D17D
:100BC0006148006800F4003090B9012065E7606872
:100BD000022806D15C48006800F0007040B901208E
:100BE0005BE75948006800F0020008B9012054E7AB
:100BF0005548406820F00300616808435249486046
:100C0000FFF7ECFD064608E0FFF7E8FD801B41F228
:100C10008831884201D903203FE74B48406800F003
:100C20000C006168B0EB810FEED14648006800F01F
:100C30000700A8420ED94348006820F00700284367
:100C4000404908600846006800F00700A84201D04B
:100C5000012022E7207800F0040004281FD1E0687A
:100C600078B1E068B0F5806F0BD0E068B0F5A06FA8
:100C700007D0E068B0F5C06F03D0E068B0F5E06F72
:100C800000D104E040F2A23120A001F097FB2E48F1
:100C9000406820F4E060E16808432B494860207810
:100CA00000F00800082820D1206978B12069B0F54B
:100CB000806F0BD02069B0F5A06F07D02069B0F528
:100CC000C06F03D02069B0F5E06F00D104E040F2BE
:100CD000A9310EA001F072FB1B48406820F460505F
:100CE000216940EAC1001849486000F035F816490A
:100CF0004968C1F30311154A515CC84014490860A2
:100D000014480068FFF790FD0020C6E62E2E2F4401
:100D10007269766572732F53544D33324631787849
:100D20005F48414C5F4472697665722F5372632F3E
:100D300073746D3332663178785F68616C5F7263AB
:100D4000632E630000200240001002402E2800089D
:100D50000C0000200400002070B5002100220024B7
:100D600000230020134D696801F00C05F5B1042D36
:100D700002D0082D19D101E00F4819E00F4DC1F341
:100D80008346AB5D01F4803555B10A4D6D68C5F3FE
:100D900040450B4E725D084D5D43B5FBF2F402E039
:100DA000084D03FB05F4204602E000BF024800BFE7
:100DB00000BF70BD0010024000127A001C2800081D
:100DC0002C28000800093D00F8B504460CB90120A4
:100DD000F8BD206890B1207800F0010070B920784B
:100DE00000F00200022809D0207800F0080008284E
:100DF00004D0207800F00400042800D104E040F280
:100E00006511FAA001F0DAFA207800F0010000285C
:100E100070D0606838B16068B0F5803F03D060681A
:100E2000B0F5A02F00D104E040F26B11EFA001F06B
:100E3000C5FAFC48406800F00C0004280CD0F948C2
:100E4000406800F00C00082811D1F648406800F412
:100E50008030B0F5803F0AD1F248006800F40030DD
:100E6000002860D0606800285DD10120B0E700BF95
:100E70006068B0F5803F06D1EA48006840F48030F1
:100E8000E849086028E0606858B9E648006820F43E
:100E90008030E44908600846006820F4802008603B
:100EA0001AE06068B0F5A02F0BD1DE48006840F46E
:100EB0008020DC4908600846006840F48030086003
:100EC0000AE0D848006820F48030D6490860084617
:100ED000006820F48020086000BF606890B1FFF7D0
:100EE0007DFC054607E0FFF779FC401B642802D92A
:100EF00003206DE717E0CB48006800F400300028BD
:100F0000F1D010E0FFF76AFC054606E0FFF766FC4B
:100F1000401B642801D903205AE7C248006800F446
:100F200000300028F2D1207800F0020002286BD1B6
:100F3000206910B12069012800D104E040F29F111E
:100F4000AAA001F03BFA60691F2800D804E04FF422
:100F5000D071A6A001F032FAB248406800F00C004F
:100F600050B1B048406800F00C00082818D1AD48D6
:100F7000406800F4803098B9AA48006800F0020088
:100F800020B12069012801D0012021E7A54800688F
:100F900020F0F800616940EAC100A249086033E02E
:100FA0002069E8B10120A0490860FFF717FC054659
:100FB00006E0FFF713FC401B022801D9032007E7D6
:100FC0009848006800F002000028F2D095480068B8
:100FD00020F0F800616940EAC1009249086013E01E
:100FE000002091490860FFF7F9FB054606E0FFF78E
:100FF000F5FB401B022801D90320E9E68948006877
:1010000000F002000028F2D1207800F00800082843
:1010100038D1A06910B1A069012800D104E04FF4D3
:10102000F07172A001F0CAF9A069B8B101207F493E
:101030000860FFF7D3FB054606E0FFF7CFFB401B38
:10104000022801D90320C3E67648406A00F0020076
:101050000028F2D0012001F009F813E000207349C4
:101060000860FFF7BBFB054606E0FFF7B7FB401B38
:10107000022801D90320ABE66A48406A00F002006A
:101080000028F2D1207800F00400042878D100274D
:10109000E06828B1E068012802D0E068052800D1A6
:1010A00004E040F20F2151A001F088F95D48C069C9
:1010B00000F0805070B900BF5A48C06940F08050BD
:1010C0005849C8610846C06900F08050009000BFD0
:1010D00000BF01275648006800F48070B0B954483A
:1010E000006840F4807052490860FFF777FB0546BE
:1010F00006E0FFF773FB401B642801D9032067E675
:101100004B48006800F480700028F2D000BFE0680F
:10111000012806D14348006A40F0010041490862B5
:1011200027E0E06858B93F48006A20F001003D49D7
:1011300008620846006A20F00400086219E0E068CE
:1011400005280BD13748006A40F004003549086291
:101150000846006A40F0010008620AE03148006A6F
:1011600020F001002F4908620846006A20F00400C0
:10117000086200BFE068A0B1FFF730FB054609E058
:101180002BE0FFF72BFB401B41F28831884201D94D
:1011900003201DE62348006A00F002000028F0D07A
:1011A00012E0FFF71BFB054608E0FFF717FB401BAB
:1011B00041F28831884201D9032009E61948006AC2
:1011C00000F002000028F0D1012F05D11548C069B8
:1011D00020F080501349C86100BFE06928B1E06980
:1011E000012802D0E069022824D129E02E2E2F44C4
:1011F0007269766572732F53544D33324631787865
:101200005F48414C5F4472697665722F5372632F59
:1012100073746D3332663178785F68616C5F7263C6
:10122000632E6300001002400000424280044242EC
:101230000070004040F2AD21AFF2500001F0BEF866
:10124000E069002875D06748406800F00C00082865
:1012500070D0E06902286ED1206A18B1206AB0F51A
:10126000803F00D105E040F2B621AFF2800001F0EE
:10127000A5F8606AB8B3606AB0F5802F33D0606AB1
:10128000B0F5002F2FD0606AB0F5402F2BD0606AE8
:10129000B0F5801F27D0606AB0F5A01F23D0606A28
:1012A000B0F5C01F1FD0606AB0F5E01F1BD0606AA8
:1012B000B0F5001F17D0606AB0F5101F13D0606A38
:1012C000B0F5201F0FD0606AB0F5301F0BD0606AF8
:1012D000B0F5401F07D0606AB0F5501F03D0606AB8
:1012E000B0F5601F00D105E040F2B721AFF2041065
:1012F00001F064F800203C490866FFF76FFA0546E4
:1013000006E0FFF76BFA401B022801D903205FE5D6
:101310003448006800F000700028F2D1206AB0F56F
:10132000803F17D1A06818B1A068B0F5003F03D185
:1013300008E055E042E02CE040F2CD21AFF254103D
:1013400001F03CF82748406820F40030A1680843C9
:1013500024494860D4E9080108432249496821F436
:10136000741108431F49486001201F490866FFF7B0
:1013700035FA054606E0FFF731FA401B022801D98D
:10138000032025E51748006800F000700028F2D01F
:1013900026E0002014490866FFF720FA054606E01B
:1013A000FFF71CFA401B022801D9032010E50D4865
:1013B000006800F000700028F2D111E0E069012817
:1013C00000D105E50748466806F48031206A81426D
:1013D00004D106F47011606A814201D00120F7E463
:1013E0000020F5E400100240000042427047000077
:1013F000F8B504462068466820688568C5F3801003
:1014000048B905F0010030B1C6F3801018B120468C
:10141000216C8847F8BDC5F3400030B1C6F3C01059
:1014200018B12046616C8847F4E7C5F3401018B93D
:10143000C5F38010002871D0C6F3401000286DD08D
:10144000C5F38010F0B194F8510003280ED0606D00
:1014500040F00400606500BF002000902068C06874
:10146000009020688068009000BF0BE000BF002063
:1014700000902068C068009020688068009000BFDD
:1014800000BFC7E7C5F3401088B1606D40F00100B0
:10149000606500BF00200090206880680090206890
:1014A000006820F040002168086000BF00BF606D48
:1014B00070B32068406820F0E00021684860012097
:1014C00084F8510006F0020010B906F0010000B3E4
:1014D0002068406820F0030021684860E06C50B14B
:1014E0000F48E16C4863E06CFEF7D8FE18B1606D00
:1014F00040F040006065A06C50B10948A16C4863A1
:10150000A06CFEF7CBFE18B1606D40F04000606546
:1015100002E02046FFF76AFF7CE7FFE700BF79E7BC
:101520002521000810B504460CB9012010BD9049D2
:101530002068884203D08F492068884200D104E0A7
:101540004FF4AB718CA000F039FF606818B160688F
:10155000B0F5827F00D104E040F2571186A000F080
:101560002DFFA06838B1A068B0F5806F03D0A068E7
:10157000B0F5004F00D104E04FF4AC717EA000F054
:101580001DFFE068B0F5006F01D0E06800B904E02D
:1015900040F2591178A000F011FFA069B0F5007F6A
:1015A00005D0A06918B1A069B0F5802F00D104E082
:1015B0004FF4AD7170A000F001FFE069A0B1E069E7
:1015C000082811D0E06910280ED0E06918280BD047
:1015D000E069202808D0E069282805D0E069302893
:1015E00002D0E069382800D104E040F25B1162A02B
:1015F00000F0E4FE206A10B1206A802800D104E0E7
:101600004FF4AE715CA000F0D9FE606A00B904E04E
:1016100040F25F1158A000F0D1FE606A00283AD174
:10162000206910B12069022800D104E04FF4B171A3
:1016300051A000F0C3FE606910B16069012800D1BB
:1016400004E040F263114CA000F0B8FE6068B0F511
:10165000827F1DD1E069A0B1E069082811D0E0695E
:1016600010280ED0E06918280BD0E069202808D097
:10167000E069282805D0E069302802D0E0693828E0
:1016800000D128E040F267113BA000F097FE22E075
:101690000021E1611FE0E069A0B1E069082811D0F4
:1016A000E06910280ED0E06918280BD0E0692028E6
:1016B00008D0E069282805D0E069302802D0E06928
:1016C000382800D104E040F271112BA000F076FE22
:1016D0000021216161610021A16294F8510028B9C3
:1016E000002084F85000204600F062F8022084F8C0
:1016F00051002068006820F0400021680860A08840
:1017000000F48270218901F404410843A18901F4A5
:1017100000610843217C01F002010843217D01F0B2
:1017200001010843218B01F400710843217F01F07E
:10173000380108432021095D01F080010843218D13
:1017400001F400510843216808600421A06901EAFE
:101750001040216848602068C06920F4006021685A
:10176000C86100206065012084F851000020DDE69A
:1017700000300140003800402E2E2F4472697665FB
:1017800072732F53544D3332463178785F48414C51
:101790005F4472697665722F5372632F73746D3371
:1017A00032663178785F68616C5F7370692E6300B0
:1017B00010B586B004460020029003900490059076
:1017C0001D492068884235D100BF1C48806940F41B
:1017D00080501A4988610846806900F48050019061
:1017E00000BF00BF00BF0846806940F00400886168
:1017F0000846806900F00400019000BF00BFA020EF
:101800000290022003900320059002A90C48FEF7E5
:10181000B1FD4020029000200390049002A90848E6
:10182000FEF7A8FD002211462320FFF783F82320AE
:10183000FFF74AF806B010BD00300140001002402A
:10184000000801402DE9F8430446884616461D4627
:101850004FF0000994F85100012802D04FF002091E
:10186000A8E06068B0F5827F0DD1A06858B9042067
:1018700084F851003346424641462046009500F028
:10188000A7F9BDE8F88300BF94F85000012801D102
:101890000220F6E7012084F8500000BFFEF79EFF0B
:1018A0000746B8F1000F00D016B94FF0010981E0EA
:1018B000042084F8510000206065C4F83880A687B1
:1018C000E6872063A086E08620646064A068B0F5A7
:1018D000004F0BD12068006820F0400021680860AC
:1018E0002068006820F48040216808602068006853
:1018F00000F04000402805D02068006840F040001B
:1019000021680860E06810BB1DE02068806800F076
:10191000010050B12068007BA16B0870A06B401CD7
:10192000A063E08F401EE0870DE0FEF757FFC01B6D
:10193000A84201D3681C00B92DB94FF0030901205A
:1019400084F8510036E0E08F0028DED121E01DE070
:101950002068806800F0010050B12068C068A16B69
:101960000880A06B801CA063E08F401EE0870DE024
:10197000FEF734FFC01BA84201D3681C00B92DB983
:101980004FF00309012084F8510013E0E08F002894
:10199000DED13A462946204600F0CEFB08B1202091
:1019A0006065606D10B14FF0010902E0012084F81C
:1019B000510000BF00BF002084F8500000BF48461F
:1019C0005FE700002DE9F84F0446884616461D469D
:1019D0004FF0000AA06818B1A068B0F5004F00D120
:1019E00004E04FF448716CA000F0E8FC00BF94F8EC
:1019F0005000012802D10220BDE8F88F012084F8B0
:101A0000500000BFFEF7EAFE0746B14694F85100C9
:101A1000012802D04FF0020AB7E0B8F1000F00D061
:101A200016B94FF0010AB0E0032084F851000020FD
:101A30006065C4F83080A686E686A063A087E0874C
:101A400060642064A068B0F5004F0BD12068006886
:101A500020F04000216808602068006840F4804061
:101A6000216808602068006800F04000402805D028
:101A70002068006840F0400021680860E068B0F528
:101A8000006F32D1606810B1B9F1010F09D1206B3C
:101A900000882168C860206B801C2063E08E401E97
:101AA000E0861EE02068806800F0020002280AD16B
:101AB000206B00882168C860206B801C2063E08E4A
:101AC000401EE0860DE0FEF789FEC01BA84201D350
:101AD000681C00B92DB94FF0030A012084F85100A9
:101AE00053E0E08E0028DDD131E0606810B1B9F13B
:101AF000010F09D1206B007821680873206B401C0E
:101B00002063E08E401EE0861EE02068806800F0C2
:101B1000020002280AD1206B007821680873206B2C
:101B2000401C2063E08E401EE0860DE0FEF756FE6E
:101B3000C01BA84201D3681C00B92DB94FF0030A9D
:101B4000012084F8510020E0E08E0028DDD13A46E3
:101B50002946204600F02CFB08B120206065A068D3
:101B600050B900BF002000902068C0680090206835
:101B70008068009000BF00BF606D10B14FF0010A97
:101B800002E0012084F8510000BF00BF002084F86B
:101B9000500000BF50462FE72E2E2F447269766505
:101BA00072732F53544D3332463178785F48414C2D
:101BB0005F4472697665722F5372632F73746D334D
:101BC00032663178785F68616C5F7370692E63008C
:101BD0002DE9FF5F0446884691461D460E9E012072
:101BE000029000200190A06800B904E040F2AE41EC
:101BF0008BA000F0E3FB00BF94F85000012803D154
:101C0000022004B0BDE8F09F012084F8500000BF1E
:101C1000FEF7E4FD074694F851B060680390AA46C9
:101C2000BBF1010F0BD00398B0F5827F04D1A068FF
:101C300010B9BBF1040F02D002200190E9E0B8F125
:101C4000000F03D0B9F1000F00D015B901200190A9
:101C5000DFE094F85100042802D0052084F85100F8
:101C600000206065C4F83890E587A587C4F8308007
:101C7000E586A586206460642068006800F0400066
:101C8000402805D02068006840F0400021680860C6
:101C9000E068B0F5006F4DD1606810B1BAF1010F86
:101CA00009D1206B00882168C860206B801C2063EC
:101CB000E08E401EE08636E02068806800F002007A
:101CC000022810D1E08E70B1029801280BD1206B50
:101CD00000882168C860206B801C2063E08E401E55
:101CE000E086002002902068806800F0010068B162
:101CF000E08F58B12068C068A16B0880A06B801C81
:101D0000A063E08F401EE08701200290FEF766FD91
:101D1000C01BB04207D3701C28B1032001900120E2
:101D200084F8510075E0E08E0028C5D1E08F0028CE
:101D3000C2D14DE0606810B1BAF1010F09D1206B3A
:101D4000007821680873206B401C2063E08E401EE1
:101D5000E08637E02068806800F00200022810D199
:101D6000E08E70B1029801280BD1206B00782168B9
:101D70000873206B401C2063E08E401EE08600202C
:101D800002902068806800F0010068B1E08F58B1CF
:101D90002068C068A16B0870A06B401CA063E08F36
:101DA000401EE08701200290FEF718FDC01BB042E4
:101DB00001D3701C00B92EB903200190012084F8D2
:101DC000510026E0E08E0028C4D1E08F0028C1D168
:101DD0003A463146204600F0EBF920B1012001904F
:101DE0002020606515E0A06850B900BF0020009079
:101DF0002068C068009020688068009000BF00BF25
:101E0000606D10B10120019002E0012084F85100C2
:101E100000BF00BF002084F8500000BF0198F0E62A
:101E20002E2E2F447269766572732F53544D3332C0
:101E3000463178785F48414C5F4472697665722F0D
:101E40005372632F73746D3332663178785F6861D3
:101E50006C5F7370692E630070B504462546681E7A
:101E6000B0F1807F01D301200FE0681E4FF0E02128
:101E700048610F214FF0FF3000F08CFA00204FF046
:101E8000E021886107200861002070BD00BFFEE7E7
:101E900070B50446044804702007050E2A46102138
:101EA000002000F035FA70BD3000002070B5044607
:101EB000204604EBD07149104FF6FF7202EA8115FB
:101EC0002A461021002000F023FA70BD10B5002230
:101ED00010210248FEF746FC10BD0000000801403A
:101EE00010B5012210210248FEF73CFC10BD000095
:101EF0000008014070B505460E464FF48054054871
:101F00000078002800DDA40022461021022000F005
:101F1000FFF970BD3000002010B500F019F8322034
:101F2000FFF7C4FF0020FFF7B3FF0F2000F007F812
:101F300044F21A1142F21070FFF7DCFF10BD10B529
:101F400004464BF6FF721021012000F0E1F910BDAC
:101F500010B54FF480521021002000F0D9F910BDC7
:101F600000B585B00020019002900390049000BF5E
:101F70002748806940F0100025498861084680693B
:101F800000F01000009000BF00BF00BF084680694D
:101F900040F0200088610846806900F02000009031
:101FA00000BF00BF00BF0846806940F004008861A0
:101FB0000846806900F00400009000BF00BF0022C6
:101FC0004FF400511348FEF7CDFB00224FF444714B
:101FD0001148FEF7C7FB4FF400500190012002901A
:101FE000002003900220049001A90A48FEF7C2F9DC
:101FF0004FF44470019001200290002003900220D1
:10200000049001A90448FEF7B5F905B000BD000031
:1020100000100240001001400008014010B50E48B9
:102020000E4908604FF48270486000210B488160BF
:10203000C160016101214161490281610821C161E1
:1020400000210162416281620A21C162FFF76AFADE
:1020500008B1FEF71FF910BD003001403400002028
:1020600000BFFEE700BFFEE77047000008B5084963
:102070000968C9084FF47A72B1FBF2F1414300914B
:1020800000BF00BF00994A1E00920029F9D108BD87
:102090000C0000202DE9FC4106460C460CB1202C1A
:1020A00002DD0020BDE8FC81012000EB8600C0B20B
:1020B00001900025FFF70AFF0A23012201A9144815
:1020C000FFF780FC2746E01704EB5070C0F3CF0207
:1020D0000A2369460E48FFF7B5FBFFF701FF002012
:1020E0000DE02146E21704EB5272C0EBE202521EF1
:1020F0001DF80220C3009A401544411CC8B2E217E3
:1021000004EB5272B0EBE20FEBDB2846CAE70000AB
:102110003400002010B50248FFF76AF910BD000036
:102120003400002070B505466C6A0020E087E08628
:102130002046FFF75BF970BDF8B504460E4615461C
:102140006068B0F5827F0DD1A068B0F5004F03D074
:10215000A068B0F5806F05D12068006820F04000CD
:10216000216808606068B0F5827F11D1A068B0F581
:10217000806F0DD13346002201212046009500F0EA
:102180002BF898B1606D40F0200060650320F8BD29
:102190003346002280212046009500F01DF828B12A
:1021A000606D40F0200060650320F0E70020EEE75E
:1021B000F8B504460D4616462B46002280212046DF
:1021C000009600F009F828B1606D40F020006065CD
:1021D0000320F8BD0020FCE72DE9F84F04460D462A
:1021E00090461E46DDF82890FEF7F8FAA0EB0900AD
:1021F000371AFEF7F3FA82462C480068C0F3CB305A
:102200007843009045E0701C002842D0FEF7E6FAC3
:10221000A0EB0A00B84200D2A7BB2068406820F0BB
:10222000E000216848606068B0F5827F0DD1A06849
:10223000B0F5004F03D0A068B0F5806F05D12068DD
:10224000006820F0400021680860A06AB0F5005FD7
:102250000DD100BF2068006820F40050216808609C
:102260002068006840F400502168086000BF012029
:1022700084F8510000BF002084F8500000BF032004
:10228000BDE8F88FFFE7009800B900270098401ECE
:102290000090206880682840A84201D1012000E019
:1022A00000204045AFD10020EAE700000C000020EC
:1022B000704710B5FEF798FA10BD00B58FB0282111
:1022C00005A8FDF781FF14216846FDF77DFF012079
:1022D00005900004069000200C9005A8FEF774FD00
:1022E00008B1FDF7D7FF0F200090012001900020DA
:1022F00002900390049000216846FEF7C9FB08B1E4
:10230000FDF7C8FF0FB000BD704700BFFEE700003B
:102310002DE9FC4105460C4616460CB1202C01DD8A
:10232000BDE8FC81002040EA8500C0B20190002099
:1023300008E004EBC00106FA01F1090E0DF80010E7
:10234000411CC8B2E21704EB5272B0EBE20FF0DBB3
:10235000FFF7BCFD0A23012201A90948FFF732FB60
:102360002746E01704EB5070C0F3CF020A236946FA
:102370000348FFF727FBFFF7B3FD00BFD0E70000DE
:102380003400002002480068C0F3022070470000BB
:102390000CED00E010B5002804DB0A07130E054A17
:1023A000135406E00A07140E034A00F00F031B1F24
:1023B000D45410BD00E400E018ED00E070470000C8
:1023C0002DE9F04104240EE00F4A02EB440251785B
:1023D0000D4A12F81400FFF75DFE211F0B4A42F868
:1023E0002100601CC4B2082CEEDB0849098808B241
:1023F00000F099F806460022054B00F0ABF80446C1
:1024000000F060F8BDE8F0814C2800088C00002046
:10241000000009400124FEF7F3F9FFF74EFFFFF734
:102420009FFDFFF7FBFDFFF75BFDFFF775FD012249
:1024300051032248FEF796F93EE0FFF7C1FF05463B
:10244000284600F085F943F2C821884214DD9CB982
:1024500000224FF400711A48FEF784F96420FDF75A
:1024600075FF012211021648FEF77CF901240022B3
:1024700061031248FEF776F9284600F069F942F246
:102480001071884214DA012C12D1002221020C486A
:10249000FEF768F96420FDF759FF01225102084850
:1024A000FEF760F90024012251030448FEF75AF9AF
:1024B0004FF47A70FDF74AFFBFE7000000100140BB
:1024C0000008014021F00042A2F16052B2F5801FE5
:1024D00001F0004328BFD2F17F6C0BD95FEA001CEA
:1024E00043EAC20242EB507018BF704728BF20F089
:1024F00001007047B2F5801FBCBF184670474FEA15
:10250000410C1CF5001F02D2084600F082B970B5DC
:1025100000F0CAF800000089FFF7F6BF4FF0004056
:10252000A0F58000704710F0004248BF4042B0FA6A
:1025300080F310FA03F10AD0C3F11D0303F58063A1
:102540004FEA415002EB035202EBD12170474FF0AA
:1025500000007047DFF848C170B51CEA111E1EBFAD
:102560001CEA13159EEA0C0F95EA0C0F00F06F8021
:1025700081EA030423EA4C134EEAD47E21EA4C118B
:1025800041F4801143F48013AE44A1FB024CA0FB44
:102590000365AEF17F7E361955EB0C05A1FB034CAC
:1025A0004CF10003A0FB021C16EB0C06654153F135
:1025B0000003094218BF46F0010613F4007F0BD157
:1025C0004FEA03314FEA0530340341EA155140EA3E
:1025D00016506FF003020AE04FEAC3214FEAC5200C
:1025E000F40241EA555140EA56506FF0020202EB04
:1025F0002E4201EB025585EACE710AD05FEA440C07
:1026000018BF24F0004450F1000041F1000120EA1D
:10261000D47040F2FE7C624500D270BDA84214BF67
:102620004FF080444FF04044002E08BF0024BEF11C
:10263000806FA8BFA1F1C041BDE8704080F28280E8
:102640004FF0000001F1C04101F0004170479EEAE7
:102650000C0F0CEA131518BF95EA0C0F06D04FF0BB
:10266000000081EA030E0EF0004170BD00F01CF87E
:102670008900013E00F007B800F009B84FEA430CAA
:102680005FEA5C5C08D081EA030100F05BB84FEAC6
:10269000410C5FEA5C5CF6D14FF0000001497047E5
:1026A0000000FF070000F87F0EF1020E2EF0030E6F
:1026B0005EF8046B364205D4012A43EB030515F599
:1026C000001F12D8012841EB010C1CF5001F0CD88B
:1026D0000ED14FEAD17C15F5001F0CEB4C0C0CF120
:1026E000020C08BF4CEBD37C04E04FF0080C01E077
:1026F0004FEAD37C0CEB4C0526FA05F606F00706EC
:10270000B6F1040C06D20EEB860CBDE870404CF01E
:10271000010C6047DFE80CF0090B02024FF00041AA
:102720004FF00000A1F5002170BD194610460128A8
:1027300051EB010418BFD4F5001484BF002001F050
:10274000004170BD0808A0F500114FEA3101704743
:1027500041000B0ED3F19E0208D950F400034FEA5A
:10276000032323FA02F048BF4042704710B500F03F
:102770000AF800BF49922480002070476FF00042A1
:1027800082EA200070470EF1020E2EF0030E5EF872
:10279000044B244204D44FEA4102B2F17F4F11D8D6
:1027A0004FEA4003B3F17F4F0CD80ED14FEAD07CF3
:1027B000B2F17F4F0CEB4C0C0CF1020C08BF4CEB50
:1027C000D17C04E04FF0080C01E04FEAD17C0CEB27
:1027D0004C0324FA03F404F00704B4F1040C06D209
:1027E0000EEB840CBDE810404CF0010C6047DFE8B4
:1027F0000CF0070802024FF00040A0F5800010BD69
:102800000846420018BFD2F1807288BF00F0004035
:1028100010BDFF2141EAD050C005704702030405F6
:10282000060708090A0B0C0D0E0F1010010200001C
:102830000000000000000102030406070809000070
:10284000000001020304000000100000001001104D
:102850000210041005100610071008180B100C10B9
:102860000D100E100F10101011103E103F10000030
:10287000400D0300942800080000002034000000F0
:1028800028010008C828000834000020CC060000F9
:1028900044010008000000001000000001000000DA
:1028A0000024F40000000000000000000000000010
:1028B0000000000000000000000000000000000018
:0828C000000000000000000010
:04000005080000ED02
:00000001FF
